{
  "abi": [
    {
      "inputs": [
        {
          "internalType": "address",
          "name": "_poolAddress",
          "type": "address"
        },
        {
          "internalType": "uint256",
          "name": "_threshold",
          "type": "uint256"
        },
        {
          "internalType": "address",
          "name": "_committer",
          "type": "address"
        },
        {
          "internalType": "address",
          "name": "_encoder",
          "type": "address"
        },
        {
          "internalType": "contract ERC20",
          "name": "_vault",
          "type": "address"
        }
      ],
      "stateMutability": "nonpayable",
      "type": "constructor"
    },
    {
      "anonymous": false,
      "inputs": [
        {
          "indexed": false,
          "internalType": "string",
          "name": "_msg",
          "type": "string"
        }
      ],
      "name": "Log",
      "type": "event"
    },
    {
      "anonymous": false,
      "inputs": [
        {
          "indexed": false,
          "internalType": "uint256",
          "name": "_amt",
          "type": "uint256"
        }
      ],
      "name": "acquired",
      "type": "event"
    },
    {
      "anonymous": false,
      "inputs": [
        {
          "indexed": false,
          "internalType": "uint256",
          "name": "_amt",
          "type": "uint256"
        }
      ],
      "name": "holding",
      "type": "event"
    },
    {
      "anonymous": false,
      "inputs": [
        {
          "indexed": false,
          "internalType": "uint256",
          "name": "_skew",
          "type": "uint256"
        }
      ],
      "name": "noAction",
      "type": "event"
    },
    {
      "anonymous": false,
      "inputs": [
        {
          "indexed": false,
          "internalType": "uint256",
          "name": "_amt",
          "type": "uint256"
        }
      ],
      "name": "releasing",
      "type": "event"
    },
    {
      "anonymous": false,
      "inputs": [
        {
          "indexed": false,
          "internalType": "uint256",
          "name": "_amt",
          "type": "uint256"
        }
      ],
      "name": "unwind",
      "type": "event"
    },
    {
      "inputs": [],
      "name": "acquiring",
      "outputs": [
        {
          "internalType": "uint256",
          "name": "",
          "type": "uint256"
        }
      ],
      "stateMutability": "view",
      "type": "function"
    },
    {
      "inputs": [
        {
          "internalType": "uint256",
          "name": "_amt",
          "type": "uint256"
        }
      ],
      "name": "agBal",
      "outputs": [
        {
          "internalType": "bool",
          "name": "",
          "type": "bool"
        }
      ],
      "stateMutability": "view",
      "type": "function"
    },
    {
      "inputs": [],
      "name": "checkSkew",
      "outputs": [],
      "stateMutability": "nonpayable",
      "type": "function"
    },
    {
      "inputs": [],
      "name": "disposing",
      "outputs": [
        {
          "internalType": "uint256",
          "name": "",
          "type": "uint256"
        }
      ],
      "stateMutability": "view",
      "type": "function"
    },
    {
      "inputs": [],
      "name": "pool",
      "outputs": [
        {
          "internalType": "contract ILeveragedPool",
          "name": "",
          "type": "address"
        }
      ],
      "stateMutability": "view",
      "type": "function"
    },
    {
      "inputs": [],
      "name": "skew",
      "outputs": [
        {
          "internalType": "uint256",
          "name": "",
          "type": "uint256"
        }
      ],
      "stateMutability": "view",
      "type": "function"
    },
    {
      "inputs": [],
      "name": "target",
      "outputs": [
        {
          "internalType": "uint256",
          "name": "",
          "type": "uint256"
        }
      ],
      "stateMutability": "view",
      "type": "function"
    },
    {
      "inputs": [],
      "name": "threshold",
      "outputs": [
        {
          "internalType": "uint256",
          "name": "",
          "type": "uint256"
        }
      ],
      "stateMutability": "view",
      "type": "function"
    },
    {
      "inputs": [],
      "name": "tradeLive",
      "outputs": [
        {
          "internalType": "bool",
          "name": "",
          "type": "bool"
        }
      ],
      "stateMutability": "view",
      "type": "function"
    }
  ],
  "bytecode": {
    "object": "0x608060405234801561001057600080fd5b50604051610c85380380610c8583398101604081905261002f91610092565b5060048054600594909455600680546001600160a01b039687166001600160a01b03199182168117909255600280548216958816959095179094556007805490941692909516919091179091556001600160a81b03199091169091179055610115565b600080600080600060a086880312156100aa57600080fd5b85516100b5816100fd565b6020870151604088015191965094506100cd816100fd565b60608701519093506100de816100fd565b60808701519092506100ef816100fd565b809150509295509295909350565b6001600160a01b038116811461011257600080fd5b50565b610b61806101246000396000f3fe608060405234801561001057600080fd5b50600436106100935760003560e01c8063b27979ca11610066578063b27979ca1461010b578063b4b016a714610113578063d4b839921461011b578063e197f10714610123578063f91071e61461013657600080fd5b806316f0115b1461009857806342cde4e8146100c857806373d01eee146100df578063a4ea5f1d146100e7575b600080fd5b6006546100ab906001600160a01b031681565b6040516001600160a01b0390911681526020015b60405180910390f35b6100d160055481565b6040519081526020016100bf565b6100d1610140565b6004546100fb90600160a01b900460ff1681565b60405190151581526020016100bf565b6100d16101db565b6100d16102fa565b6100d161038e565b6100fb610131366004610a89565b6104c0565b61013e61055b565b005b6001546040516370a0823160e01b815230600482015260009182916001600160a01b03909116906370a082319060240160206040518083038186803b15801561018857600080fd5b505afa15801561019c573d6000803e3d6000fd5b505050506040513d601f19601f820116820180604052508101906101c09190610a06565b9050806101cb61038e565b6101d59190610b06565b91505090565b600080600660009054906101000a90046001600160a01b03166001600160a01b0316637e71fc7d6040518163ffffffff1660e01b815260040160206040518083038186803b15801561022c57600080fd5b505afa158015610240573d6000803e3d6000fd5b505050506040513d601f19601f820116820180604052508101906102649190610a06565b600660009054906101000a90046001600160a01b03166001600160a01b031663ba8d54686040518163ffffffff1660e01b815260040160206040518083038186803b1580156102b257600080fd5b505afa1580156102c6573d6000803e3d6000fd5b505050506040513d601f19601f820116820180604052508101906102ea9190610a06565b6102f49190610ae4565b92915050565b6001546040516370a0823160e01b815230600482015260009182916001600160a01b03909116906370a082319060240160206040518083038186803b15801561034257600080fd5b505afa158015610356573d6000803e3d6000fd5b505050506040513d601f19601f8201168201806040525081019061037a9190610a06565b905061038461038e565b6101d59082610b06565b6001546040516370a0823160e01b815230600482015260009182916001600160a01b03909116906370a082319060240160206040518083038186803b1580156103d657600080fd5b505afa1580156103ea573d6000803e3d6000fd5b505050506040513d601f19601f8201168201806040525081019061040e9190610a06565b9050600061041a6101db565b6104249083610ae4565b90506000600660009054906101000a90046001600160a01b03166001600160a01b0316637e71fc7d6040518163ffffffff1660e01b815260040160206040518083038186803b15801561047657600080fd5b505afa15801561048a573d6000803e3d6000fd5b505050506040513d601f19601f820116820180604052508101906104ae9190610a06565b6104b89083610b06565b949350505050565b600254604051632a6d24c960e11b815230600482015260009182916001600160a01b03909116906354da49929060240160606040518083038186803b15801561050857600080fd5b505afa15801561051c573d6000803e3d6000fd5b505050506040513d601f19601f820116820180604052508101906105409190610a1f565b519050828111610551576000610554565b60015b5050919050565b6003546040516370a0823160e01b81523360048201526001916001600160a01b0316906370a082319060240160206040518083038186803b15801561059f57600080fd5b505afa1580156105b3573d6000803e3d6000fd5b505050506040513d601f19601f820116820180604052508101906105d79190610a06565b116106285760405162461bcd60e51b815260206004820152601760248201527f4f6e6c7920706c617965722063616e2065786563757465000000000000000000604482015260640160405180910390fd5b60006106326101db565b6001546040516370a0823160e01b81523060048201529192506000916001600160a01b03909116906370a082319060240160206040518083038186803b15801561067b57600080fd5b505afa15801561068f573d6000803e3d6000fd5b505050506040513d601f19601f820116820180604052508101906106b39190610a06565b905060055482111561077a5760006106c961038e565b9050808210156106ea5760006106dd610140565b90506106e8816107c5565b505b808211156107095760006106fc6102fa565b905061070781610905565b505b80821415610745576040518281527fbae930cb1455ed0ea478dd18feb063cb8af5f6303581d3bebc059596d0aa4aa09060200160405180910390a15b6040518381527faa5c01de74f933e7490e464bfc1e87d475b8acaf01568d6104e9b71d585ea8ed9060200160405180910390a1505b6005548210156107c15761078d81610905565b6040518181527ffad898c28d6e2e25a5d022590bf8aaca6017d354bbc207123e1102187fbc32fa9060200160405180910390a15b5050565b6007546000906001600160a01b03166302255e2a8360026107e5826104c0565b60016040518563ffffffff1660e01b81526004016108069493929190610aa2565b60206040518083038186803b15801561081e57600080fd5b505afa158015610832573d6000803e3d6000fd5b505050506040513d601f19601f820116820180604052508101906108569190610a06565b600254604051631e29f97960e31b8152600481018390529192506001600160a01b03169063f14fcbc890602401600060405180830381600087803b15801561089d57600080fd5b505af11580156108b1573d6000803e3d6000fd5b505050507fad127e59c60723111d85320a183372db4a948b4ed1986a9be3f0157b0b77fbe5826040516108e691815260200190565b60405180910390a150506004805460ff60a01b1916600160a01b179055565b6007546000906001600160a01b03166302255e2a836003610925826104c0565b60016040518563ffffffff1660e01b81526004016109469493929190610aa2565b60206040518083038186803b15801561095e57600080fd5b505afa158015610972573d6000803e3d6000fd5b505050506040513d601f19601f820116820180604052508101906109969190610a06565b600254604051631e29f97960e31b8152600481018390529192506001600160a01b03169063f14fcbc890602401600060405180830381600087803b1580156109dd57600080fd5b505af11580156109f1573d6000803e3d6000fd5b50506004805460ff60a01b1916905550505050565b600060208284031215610a1857600080fd5b5051919050565b600060608284031215610a3157600080fd5b6040516060810181811067ffffffffffffffff82111715610a6257634e487b7160e01b600052604160045260246000fd5b80604052508251815260208301516020820152604083015160408201528091505092915050565b600060208284031215610a9b57600080fd5b5035919050565b8481526080810160068510610ac757634e487b7160e01b600052602160045260246000fd5b602082019490945291151560408301521515606090910152919050565b600082610b0157634e487b7160e01b600052601260045260246000fd5b500490565b600082821015610b2657634e487b7160e01b600052601160045260246000fd5b50039056fea264697066735822122082899aec05d8671dced950d1aebb577005299a8476a0ae239fa6b521ecb6888a64736f6c63430008070033",
    "linkReferences": {}
  }
}