{
    "abi": [
        {
            "anonymous": false,
            "inputs": [
                {
                    "indexed": false,
                    "internalType": "string",
                    "name": "_msg",
                    "type": "string"
                }
            ],
            "name": "Log",
            "type": "event"
        },
        {
            "anonymous": false,
            "inputs": [
                {
                    "indexed": true,
                    "internalType": "address",
                    "name": "previousOwner",
                    "type": "address"
                },
                {
                    "indexed": true,
                    "internalType": "address",
                    "name": "newOwner",
                    "type": "address"
                }
            ],
            "name": "OwnershipTransferred",
            "type": "event"
        },
        {
            "anonymous": false,
            "inputs": [
                {
                    "indexed": false,
                    "internalType": "uint256",
                    "name": "_amt",
                    "type": "uint256"
                }
            ],
            "name": "acquired",
            "type": "event"
        },
        {
            "anonymous": false,
            "inputs": [
                {
                    "indexed": false,
                    "internalType": "uint256",
                    "name": "_amt",
                    "type": "uint256"
                }
            ],
            "name": "unwind",
            "type": "event"
        },
        {
            "inputs": [
                {
                    "internalType": "uint256",
                    "name": "_amtLong",
                    "type": "uint256"
                },
                {
                    "internalType": "uint256",
                    "name": "_minAmtUSDC",
                    "type": "uint256"
                }
            ],
            "name": "_swap",
            "outputs": [
                {
                    "internalType": "uint256",
                    "name": "",
                    "type": "uint256"
                }
            ],
            "stateMutability": "nonpayable",
            "type": "function"
        },
        {
            "inputs": [
                {
                    "internalType": "uint256",
                    "name": "_amount",
                    "type": "uint256"
                }
            ],
            "name": "acquire",
            "outputs": [],
            "stateMutability": "nonpayable",
            "type": "function"
        },
        {
            "inputs": [
                {
                    "internalType": "uint256",
                    "name": "_amt",
                    "type": "uint256"
                }
            ],
            "name": "agBal",
            "outputs": [
                {
                    "internalType": "bool",
                    "name": "",
                    "type": "bool"
                }
            ],
            "stateMutability": "view",
            "type": "function"
        },
        {
            "inputs": [],
            "name": "depUSDC",
            "outputs": [
                {
                    "internalType": "uint256",
                    "name": "",
                    "type": "uint256"
                }
            ],
            "stateMutability": "view",
            "type": "function"
        },
        {
            "inputs": [
                {
                    "internalType": "uint256",
                    "name": "_amount",
                    "type": "uint256"
                }
            ],
            "name": "dispose",
            "outputs": [],
            "stateMutability": "nonpayable",
            "type": "function"
        },
        {
            "inputs": [
                {
                    "internalType": "address",
                    "name": "_poolAddress",
                    "type": "address"
                },
                {
                    "internalType": "uint256",
                    "name": "_threshold",
                    "type": "uint256"
                },
                {
                    "internalType": "address",
                    "name": "_committer",
                    "type": "address"
                },
                {
                    "internalType": "address",
                    "name": "_encoder",
                    "type": "address"
                },
                {
                    "internalType": "contract ERC20",
                    "name": "_vault",
                    "type": "address"
                }
            ],
            "name": "initialize",
            "outputs": [],
            "stateMutability": "nonpayable",
            "type": "function"
        },
        {
            "inputs": [],
            "name": "longTokenPrice",
            "outputs": [
                {
                    "internalType": "uint256",
                    "name": "",
                    "type": "uint256"
                }
            ],
            "stateMutability": "view",
            "type": "function"
        },
        {
            "inputs": [
                {
                    "internalType": "uint256",
                    "name": "_rate",
                    "type": "uint256"
                }
            ],
            "name": "nextSkew",
            "outputs": [
                {
                    "internalType": "uint256",
                    "name": "",
                    "type": "uint256"
                }
            ],
            "stateMutability": "view",
            "type": "function"
        },
        {
            "inputs": [],
            "name": "owner",
            "outputs": [
                {
                    "internalType": "address",
                    "name": "",
                    "type": "address"
                }
            ],
            "stateMutability": "view",
            "type": "function"
        },
        {
            "inputs": [],
            "name": "poke",
            "outputs": [
                {
                    "internalType": "bool",
                    "name": "",
                    "type": "bool"
                }
            ],
            "stateMutability": "nonpayable",
            "type": "function"
        },
        {
            "inputs": [],
            "name": "pool",
            "outputs": [
                {
                    "internalType": "contract ILeveragedPool",
                    "name": "",
                    "type": "address"
                }
            ],
            "stateMutability": "view",
            "type": "function"
        },
        {
            "inputs": [],
            "name": "renounceOwnership",
            "outputs": [],
            "stateMutability": "nonpayable",
            "type": "function"
        },
        {
            "inputs": [
                {
                    "internalType": "uint256",
                    "name": "amount",
                    "type": "uint256"
                }
            ],
            "name": "returnFunds",
            "outputs": [],
            "stateMutability": "nonpayable",
            "type": "function"
        },
        {
            "inputs": [
                {
                    "internalType": "uint256",
                    "name": "_amt",
                    "type": "uint256"
                }
            ],
            "name": "rxFunds",
            "outputs": [],
            "stateMutability": "nonpayable",
            "type": "function"
        },
        {
            "inputs": [],
            "name": "setActive",
            "outputs": [],
            "stateMutability": "nonpayable",
            "type": "function"
        },
        {
            "inputs": [
                {
                    "internalType": "address",
                    "name": "_vault",
                    "type": "address"
                }
            ],
            "name": "setSkewVault",
            "outputs": [],
            "stateMutability": "nonpayable",
            "type": "function"
        },
        {
            "inputs": [],
            "name": "skew",
            "outputs": [
                {
                    "internalType": "uint256",
                    "name": "",
                    "type": "uint256"
                }
            ],
            "stateMutability": "view",
            "type": "function"
        },
        {
            "inputs": [
                {
                    "internalType": "uint256",
                    "name": "_rate",
                    "type": "uint256"
                }
            ],
            "name": "target",
            "outputs": [
                {
                    "internalType": "uint256",
                    "name": "",
                    "type": "uint256"
                }
            ],
            "stateMutability": "view",
            "type": "function"
        },
        {
            "inputs": [],
            "name": "threshold",
            "outputs": [
                {
                    "internalType": "uint256",
                    "name": "",
                    "type": "uint256"
                }
            ],
            "stateMutability": "view",
            "type": "function"
        },
        {
            "inputs": [],
            "name": "tradeLive",
            "outputs": [
                {
                    "internalType": "bool",
                    "name": "",
                    "type": "bool"
                }
            ],
            "stateMutability": "view",
            "type": "function"
        },
        {
            "inputs": [
                {
                    "internalType": "address",
                    "name": "newOwner",
                    "type": "address"
                }
            ],
            "name": "transferOwnership",
            "outputs": [],
            "stateMutability": "nonpayable",
            "type": "function"
        },
        {
            "inputs": [],
            "name": "value",
            "outputs": [
                {
                    "internalType": "uint256",
                    "name": "",
                    "type": "uint256"
                }
            ],
            "stateMutability": "view",
            "type": "function"
        }
    ],
    "bytecode": {
        "object": "0x608060405234801561001057600080fd5b5061001a3361001f565b61006f565b600080546001600160a01b038381166001600160a01b0319831681178455604051919092169283917f8be0079c531659141344cd1fd0a4f28419497f9722a3daafe3b4186f6b6457e09190a35050565b611e178061007e6000396000f3fe608060405234801561001057600080fd5b50600436106101425760003560e01c806370437125116100b85780639811c7c11161007c5780639811c7c114610267578063a01ef25f1461027a578063a4ea5f1d1461028d578063b27979ca146102a1578063e197f107146102a9578063f2fde38b146102bc57600080fd5b80637043712514610220578063715018a614610233578063760a8c2a1461023b5780638da5cb5b14610243578063905c93211461025457600080fd5b806320889d3b1161010a57806320889d3b146101c35780633f36deec146101d65780633fa4f245146101e957806342cde4e8146101f157806345755dd6146101fa57806357214eb01461020d57600080fd5b8063047d666514610147578063168ba8081461016257806316f0115b1461017757806318178358146101a25780631cc4a40b146101ba575b600080fd5b61014f6102cf565b6040519081526020015b60405180910390f35b610175610170366004611b69565b6103e5565b005b60125461018a906001600160a01b031681565b6040516001600160a01b039091168152602001610159565b6101aa61048a565b6040519015158152602001610159565b61014f60115481565b6101756101d1366004611b86565b610936565b6101756101e4366004611b86565b610caa565b61014f610d44565b61014f600f5481565b610175610208366004611b86565b610e0f565b61017561021b366004611b86565b610e4a565b61014f61022e366004611b9f565b611083565b6101756113a9565b6101756113df565b6000546001600160a01b031661018a565b61014f610262366004611b86565b61143c565b61014f610275366004611b86565b611545565b610175610288366004611bc1565b6115e6565b600e546101aa90600160a01b900460ff1681565b61014f61189d565b6101aa6102b7366004611b86565b6119a6565b6101756102ca366004611b69565b611a39565b600080601260009054906101000a90046001600160a01b03166001600160a01b0316637e71fc7d6040518163ffffffff1660e01b8152600401602060405180830381865afa158015610325573d6000803e3d6000fd5b505050506040513d601f19601f820116820180604052508101906103499190611c29565b905060006103ce600a60009054906101000a90046001600160a01b03166001600160a01b03166318160ddd6040518163ffffffff1660e01b8152600401602060405180830381865afa1580156103a3573d6000803e3d6000fd5b505050506040513d601f19601f820116820180604052508101906103c79190611c29565b8390611ad4565b9050806103df576127109250505090565b92915050565b600d80546001600160a01b038381166001600160a01b03199283168117909355600c8054909216831790915560095460405163095ea7b360e01b81526004810193909352670de0b6b3a76400006024840152169063095ea7b3906044015b6020604051808303816000875af1158015610462573d6000803e3d6000fd5b505050506040513d601f19601f820116820180604052508101906104869190611c42565b5050565b600042601054106104e25760405162461bcd60e51b815260206004820152601e60248201527f706f6b652063616e206f6e6c792062652063616c6c656420686f75726c79000060448201526064015b60405180910390fd5b60006104f86104ef6102cf565b60035490611ad4565b9050600061050461189d565b90506000600f548211801561053757506001600054600160a01b900460ff16600181111561053457610534611c64565b14155b15610579576000805460ff60a01b1916600160a01b17815560028390554260015561056184611545565b60045550506005805462ffffff191660019081179091555b6001600054600160a01b900460ff16600181111561059957610599611c64565b1480156105a75750600f5482115b80156105b4575060065415155b156105f05760065460006105c785611545565b905060006105d58284611ae0565b60075550506005805462ffffff191660019081179091559150505b81600f54111561080d57600b54604051632a6d24c960e11b81523060048201526000916106e1916001600160a01b03909116906354da4992906024015b606060405180830381865afa15801561064a573d6000803e3d6000fd5b505050506040513d601f19601f8201168201806040525081019061066e9190611c7a565b51600a546040516370a0823160e01b81523060048201526001600160a01b03909116906370a0823190602401602060405180830381865afa1580156106b7573d6000803e3d6000fd5b505050506040513d601f19601f820116820180604052508101906106db9190611c29565b90611aec565b601354604051630112af1560e11b81529192506000916001600160a01b03909116906302255e2a9061071f9085906003908690600190600401611ce4565b602060405180830381865afa15801561073c573d6000803e3d6000fd5b505050506040513d601f19601f820116820180604052508101906107609190611c29565b600b54604051631e29f97960e31b8152600481018390529192506001600160a01b03169063f14fcbc890602401600060405180830381600087803b1580156107a757600080fd5b505af11580156107bb573d6000803e3d6000fd5b505050507ffad898c28d6e2e25a5d022590bf8aaca6017d354bbc207123e1102187fbc32fa826040516107f091815260200190565b60405180910390a150506005805461ffff19166101001790555060005b600f546108198461143c565b101561088b576005805462ff00ff1916620100001790556040517fcf34ef537ac33ee1ac626ca1587a0a7e8e51561e5514f8cb36afa1c5102b3bab9061087f906020808252600c908201526b6e6f206d6f726520736b657760a01b604082015260600190565b60405180910390a15060005b7fcf34ef537ac33ee1ac626ca1587a0a7e8e51561e5514f8cb36afa1c5102b3bab6040516108d8906020808252600b908201526a706f6b657920706f6b657960a81b604082015260600190565b60405180910390a16108ec42610e10611d3c565b601055600b54604051632a6d24c960e11b8152306004820152610921916001600160a01b0316906354da49929060240161062d565b60065561092c6102cf565b6003559392505050565b6001600054600160a01b900460ff16600181111561095657610956611c64565b146109a35760405162461bcd60e51b815260206004820152601f60248201527f7661756c74206d7573742062652061637469766520746f20616371756972650060448201526064016104d9565b600554610100900460ff1615610a075760405162461bcd60e51b8152602060048201526024808201527f7661756c74206d757374206265206171756972696e67206e6f7420756e77696e60448201526364696e6760e01b60648201526084016104d9565b600f54610a1261189d565b11610a5f5760405162461bcd60e51b815260206004820152601f60248201527f706f6f6c73206d75737420626520736b6577656420746f20616371756972650060448201526064016104d9565b60055460ff6201000090910416151560011415610abe5760405162461bcd60e51b815260206004820152601960248201527f6e65787420736b657720756e646572207468726573686f6c640000000000000060448201526064016104d9565b60095460405163095ea7b360e01b815273ccc0350c209f6f01d071c3cdc20eeb5ee4a73d80600482015260001960248201526001600160a01b039091169063095ea7b3906044016020604051808303816000875af1158015610b24573d6000803e3d6000fd5b505050506040513d601f19601f82011682018060405250810190610b489190611c42565b506005805460ff19169055601354604051630112af1560e11b81526000916001600160a01b0316906302255e2a90610b8c9085906002908690600190600401611ce4565b602060405180830381865afa158015610ba9573d6000803e3d6000fd5b505050506040513d601f19601f82011682018060405250810190610bcd9190611c29565b600b54604051631e29f97960e31b8152600481018390529192506001600160a01b03169063f14fcbc890602401600060405180830381600087803b158015610c1457600080fd5b505af1158015610c28573d6000803e3d6000fd5b505050507fad127e59c60723111d85320a183372db4a948b4ed1986a9be3f0157b0b77fbe582604051610c5d91815260200190565b60405180910390a1600654610c729083611aec565b600655600754610c829083611ae0565b6007819055610c99576005805460ff191690555050565b50506005805460ff19166001179055565b600954600d546040516323b872dd60e01b81526001600160a01b039182166004820152306024820152604481018490529116906323b872dd906064016020604051808303816000875af1158015610d05573d6000803e3d6000fd5b505050506040513d601f19601f82011682018060405250810190610d299190611c42565b508060116000828254610d3c9190611d3c565b909155505050565b6040516370a0823160e01b81523060048201526000908190739e062eee2c0ab96e1e1c8ce38bf14ba3fa0a35f6906370a0823190602401602060405180830381865afa158015610d98573d6000803e3d6000fd5b505050506040513d601f19601f82011682018060405250810190610dbc9190611c29565b90506001600054600160a01b900460ff166001811115610dde57610dde611c64565b1415610e0a576000610dfa610df16102cf565b60065490611af8565b9050610e068183611d3c565b9150505b919050565b600954600d5460405163a9059cbb60e01b81526001600160a01b0391821660048201526024810184905291169063a9059cbb90604401610443565b600c546040516370a0823160e01b81523360048201526001916001600160a01b0316906370a0823190602401602060405180830381865afa158015610e93573d6000803e3d6000fd5b505050506040513d601f19601f82011682018060405250810190610eb79190611c29565b11610f045760405162461bcd60e51b815260206004820152601760248201527f4f6e6c7920706c617965722063616e206578656375746500000000000000000060448201526064016104d9565b6001600054600160a01b900460ff166001811115610f2457610f24611c64565b14610f715760405162461bcd60e51b815260206004820152601f60248201527f7661756c74206d7573742062652061637469766520746f20646973706f73650060448201526064016104d9565b601354604051630112af1560e11b81526000916001600160a01b0316906302255e2a90610fa990859060039086908190600401611ce4565b602060405180830381865afa158015610fc6573d6000803e3d6000fd5b505050506040513d601f19601f82011682018060405250810190610fea9190611c29565b600b54604051631e29f97960e31b8152600481018390529192506001600160a01b03169063f14fcbc890602401600060405180830381600087803b15801561103157600080fd5b505af1158015611045573d6000803e3d6000fd5b50506007546110579250905083611ae0565b6007556006546110679083611ae0565b6006556007546103e810610c99576005805460ff191690555050565b6000600f5461109061189d565b116110d55760405162461bcd60e51b81526020600482015260156024820152741bdb9b1e481cddd85c081dda195b881cdad95dd959605a1b60448201526064016104d9565b6001600054600160a01b900460ff1660018111156110f5576110f5611c64565b146111385760405162461bcd60e51b81526020600482015260136024820152725661756c74206973206e6f742061637469766560681b60448201526064016104d9565b600554610100900460ff16156111855760405162461bcd60e51b81526020600482015260126024820152715661756c7420697320756e77696e64696e6760701b60448201526064016104d9565b60055460ff1615156001146111d45760405162461bcd60e51b81526020600482015260156024820152745661756c74206973206e6f74207377617070696e6760581b60448201526064016104d9565b600a5460405163095ea7b360e01b8152306004820152670de0b6b3a764000060248201526001600160a01b039091169063095ea7b3906044016020604051808303816000875af115801561122c573d6000803e3d6000fd5b505050506040513d601f19601f820116820180604052508101906112509190611c42565b50600a546040516323b872dd60e01b8152336004820152306024820152604481018590526001600160a01b03909116906323b872dd906064016020604051808303816000875af11580156112a8573d6000803e3d6000fd5b505050506040513d601f19601f820116820180604052508101906112cc9190611c42565b5060006112e1846112db6102cf565b90611af8565b60405163a9059cbb60e01b815233600482015260248101829052909150739e062eee2c0ab96e1e1c8ce38bf14ba3fa0a35f69063a9059cbb906044016020604051808303816000875af115801561133c573d6000803e3d6000fd5b505050506040513d601f19601f820116820180604052508101906113609190611c42565b508281116113a25760405162461bcd60e51b815260206004820152600f60248201526e4e6f7420656e6f756768205553444360881b60448201526064016104d9565b9392505050565b6000546001600160a01b031633146113d35760405162461bcd60e51b81526004016104d990611d54565b6113dd6000611b04565b565b6000546001600160a01b031633146114095760405162461bcd60e51b81526004016104d990611d54565b6000805460ff60a01b1916600160a01b1790556005805460ff199081166001908117909255600880549091169091179055565b6000806114c461144d846001611d89565b601260009054906101000a90046001600160a01b03166001600160a01b031663ba8d54686040518163ffffffff1660e01b8152600401602060405180830381865afa1580156114a0573d6000803e3d6000fd5b505050506040513d601f19601f820116820180604052508101906112db9190611c29565b9050600061151f84601260009054906101000a90046001600160a01b03166001600160a01b0316637e71fc7d6040518163ffffffff1660e01b8152600401602060405180830381865afa1580156114a0573d6000803e3d6000fd5b9050600061152d8284611da0565b9050600061153b8287611af8565b9695505050505050565b60008061155661144d846001611d89565b905060006115b184601260009054906101000a90046001600160a01b03166001600160a01b0316637e71fc7d6040518163ffffffff1660e01b8152600401602060405180830381865afa1580156114a0573d6000803e3d6000fd5b905060006115bf8284611da0565b905060006115cd8285611da0565b905060006115db8483611d89565b979650505050505050565b50600e8054600f859055601280546001600160a01b038881166001600160a01b03199283168117909355600b805483168883169081179091556013805484168884161790556001600160a81b0319909416909217909355600d5460098054739e062eee2c0ab96e1e1c8ce38bf14ba3fa0a35f6908616179055600a8054734aadc48087b569dd3e65dbe65b0dd036891767e395168517905560405163095ea7b360e01b81526004810193909352600019602484015216919063095ea7b3906044016020604051808303816000875af11580156116c6573d6000803e3d6000fd5b505050506040513d601f19601f820116820180604052508101906116ea9190611c42565b50600b5460405163095ea7b360e01b81526001600160a01b0390911660048201526000196024820152739e062eee2c0ab96e1e1c8ce38bf14ba3fa0a35f69063095ea7b3906044016020604051808303816000875af1158015611751573d6000803e3d6000fd5b505050506040513d601f19601f820116820180604052508101906117759190611c42565b50604051636eb1769f60e11b815273c3d2052479dbc010480ae16204777c1469ceffc96004820152306024820152739e062eee2c0ab96e1e1c8ce38bf14ba3fa0a35f69063dd62ed3e90604401602060405180830381865afa1580156117df573d6000803e3d6000fd5b505050506040513d601f19601f820116820180604052508101906118039190611c29565b5060405163095ea7b360e01b815273c3d2052479dbc010480ae16204777c1469ceffc960048201526000196024820152739e062eee2c0ab96e1e1c8ce38bf14ba3fa0a35f69063095ea7b3906044016020604051808303816000875af1158015611871573d6000803e3d6000fd5b505050506040513d601f19601f820116820180604052508101906118959190611c42565b505050505050565b60085460009060ff161515600114156118b7575061271090565b60125460408051637e71fc7d60e01b815290516000926001600160a01b031691637e71fc7d9160048083019260209291908290030181865afa158015611901573d6000803e3d6000fd5b505050506040513d601f19601f820116820180604052508101906119259190611c29565b601260009054906101000a90046001600160a01b03166001600160a01b031663ba8d54686040518163ffffffff1660e01b8152600401602060405180830381865afa158015611978573d6000803e3d6000fd5b505050506040513d601f19601f8201168201806040525081019061199c9190611c29565b6103df9190611da0565b600b54604051632a6d24c960e11b815230600482015260009182916001600160a01b03909116906354da499290602401606060405180830381865afa1580156119f3573d6000803e3d6000fd5b505050506040513d601f19601f82011682018060405250810190611a179190611c7a565b5190506000838211611a2c5750600080611a31565b506001805b509392505050565b6000546001600160a01b03163314611a635760405162461bcd60e51b81526004016104d990611d54565b6001600160a01b038116611ac85760405162461bcd60e51b815260206004820152602660248201527f4f776e61626c653a206e6577206f776e657220697320746865207a65726f206160448201526564647265737360d01b60648201526084016104d9565b611ad181611b04565b50565b60006113a28284611da0565b60006113a28284611d89565b60006113a28284611d3c565b60006113a28284611dc2565b600080546001600160a01b038381166001600160a01b0319831681178455604051919092169283917f8be0079c531659141344cd1fd0a4f28419497f9722a3daafe3b4186f6b6457e09190a35050565b6001600160a01b0381168114611ad157600080fd5b600060208284031215611b7b57600080fd5b81356113a281611b54565b600060208284031215611b9857600080fd5b5035919050565b60008060408385031215611bb257600080fd5b50508035926020909101359150565b600080600080600060a08688031215611bd957600080fd5b8535611be481611b54565b9450602086013593506040860135611bfb81611b54565b92506060860135611c0b81611b54565b91506080860135611c1b81611b54565b809150509295509295909350565b600060208284031215611c3b57600080fd5b5051919050565b600060208284031215611c5457600080fd5b815180151581146113a257600080fd5b634e487b7160e01b600052602160045260246000fd5b600060608284031215611c8c57600080fd5b6040516060810181811067ffffffffffffffff82111715611cbd57634e487b7160e01b600052604160045260246000fd5b80604052508251815260208301516020820152604083015160408201528091505092915050565b8481526080810160068510611d0957634e487b7160e01b600052602160045260246000fd5b602082019490945291151560408301521515606090910152919050565b634e487b7160e01b600052601160045260246000fd5b60008219821115611d4f57611d4f611d26565b500190565b6020808252818101527f4f776e61626c653a2063616c6c6572206973206e6f7420746865206f776e6572604082015260600190565b600082821015611d9b57611d9b611d26565b500390565b600082611dbd57634e487b7160e01b600052601260045260246000fd5b500490565b6000816000190483118215151615611ddc57611ddc611d26565b50029056fea26469706673582212200c7d67cc5341016f00067011feafb9b5c96e9506be9087e3aaa1c77ce650a02c64736f6c634300080a0033",
        "linkReferences": {}
    }
}