{
    "abi": [
        {
            "inputs": [
                {
                    "internalType": "address",
                    "name": "_underlying",
                    "type": "address"
                }
            ],
            "stateMutability": "nonpayable",
            "type": "constructor"
        },
        {
            "anonymous": false,
            "inputs": [
                {
                    "indexed": true,
                    "internalType": "address",
                    "name": "owner",
                    "type": "address"
                },
                {
                    "indexed": true,
                    "internalType": "address",
                    "name": "spender",
                    "type": "address"
                },
                {
                    "indexed": false,
                    "internalType": "uint256",
                    "name": "amount",
                    "type": "uint256"
                }
            ],
            "name": "Approval",
            "type": "event"
        },
        {
            "anonymous": false,
            "inputs": [
                {
                    "indexed": true,
                    "internalType": "address",
                    "name": "caller",
                    "type": "address"
                },
                {
                    "indexed": true,
                    "internalType": "address",
                    "name": "owner",
                    "type": "address"
                },
                {
                    "indexed": false,
                    "internalType": "uint256",
                    "name": "assets",
                    "type": "uint256"
                },
                {
                    "indexed": false,
                    "internalType": "uint256",
                    "name": "shares",
                    "type": "uint256"
                }
            ],
            "name": "Deposit",
            "type": "event"
        },
        {
            "anonymous": false,
            "inputs": [
                {
                    "indexed": true,
                    "internalType": "address",
                    "name": "previousOwner",
                    "type": "address"
                },
                {
                    "indexed": true,
                    "internalType": "address",
                    "name": "newOwner",
                    "type": "address"
                }
            ],
            "name": "OwnershipTransferred",
            "type": "event"
        },
        {
            "anonymous": false,
            "inputs": [
                {
                    "indexed": true,
                    "internalType": "address",
                    "name": "from",
                    "type": "address"
                },
                {
                    "indexed": true,
                    "internalType": "address",
                    "name": "to",
                    "type": "address"
                },
                {
                    "indexed": false,
                    "internalType": "uint256",
                    "name": "amount",
                    "type": "uint256"
                }
            ],
            "name": "Transfer",
            "type": "event"
        },
        {
            "anonymous": false,
            "inputs": [
                {
                    "indexed": true,
                    "internalType": "address",
                    "name": "caller",
                    "type": "address"
                },
                {
                    "indexed": true,
                    "internalType": "address",
                    "name": "receiver",
                    "type": "address"
                },
                {
                    "indexed": true,
                    "internalType": "address",
                    "name": "owner",
                    "type": "address"
                },
                {
                    "indexed": false,
                    "internalType": "uint256",
                    "name": "assets",
                    "type": "uint256"
                },
                {
                    "indexed": false,
                    "internalType": "uint256",
                    "name": "shares",
                    "type": "uint256"
                }
            ],
            "name": "Withdraw",
            "type": "event"
        },
        {
            "inputs": [],
            "name": "DOMAIN_SEPARATOR",
            "outputs": [
                {
                    "internalType": "bytes32",
                    "name": "",
                    "type": "bytes32"
                }
            ],
            "stateMutability": "view",
            "type": "function"
        },
        {
            "inputs": [
                {
                    "internalType": "address",
                    "name": "",
                    "type": "address"
                },
                {
                    "internalType": "address",
                    "name": "",
                    "type": "address"
                }
            ],
            "name": "allowance",
            "outputs": [
                {
                    "internalType": "uint256",
                    "name": "",
                    "type": "uint256"
                }
            ],
            "stateMutability": "view",
            "type": "function"
        },
        {
            "inputs": [
                {
                    "internalType": "address",
                    "name": "spender",
                    "type": "address"
                },
                {
                    "internalType": "uint256",
                    "name": "amount",
                    "type": "uint256"
                }
            ],
            "name": "approve",
            "outputs": [
                {
                    "internalType": "bool",
                    "name": "",
                    "type": "bool"
                }
            ],
            "stateMutability": "nonpayable",
            "type": "function"
        },
        {
            "inputs": [],
            "name": "asset",
            "outputs": [
                {
                    "internalType": "contract ERC20",
                    "name": "",
                    "type": "address"
                }
            ],
            "stateMutability": "view",
            "type": "function"
        },
        {
            "inputs": [
                {
                    "internalType": "address",
                    "name": "",
                    "type": "address"
                }
            ],
            "name": "balanceOf",
            "outputs": [
                {
                    "internalType": "uint256",
                    "name": "",
                    "type": "uint256"
                }
            ],
            "stateMutability": "view",
            "type": "function"
        },
        {
            "inputs": [
                {
                    "internalType": "uint256",
                    "name": "shares",
                    "type": "uint256"
                }
            ],
            "name": "convertToAssets",
            "outputs": [
                {
                    "internalType": "uint256",
                    "name": "",
                    "type": "uint256"
                }
            ],
            "stateMutability": "view",
            "type": "function"
        },
        {
            "inputs": [
                {
                    "internalType": "uint256",
                    "name": "assets",
                    "type": "uint256"
                }
            ],
            "name": "convertToShares",
            "outputs": [
                {
                    "internalType": "uint256",
                    "name": "",
                    "type": "uint256"
                }
            ],
            "stateMutability": "view",
            "type": "function"
        },
        {
            "inputs": [],
            "name": "decimals",
            "outputs": [
                {
                    "internalType": "uint8",
                    "name": "",
                    "type": "uint8"
                }
            ],
            "stateMutability": "view",
            "type": "function"
        },
        {
            "inputs": [
                {
                    "internalType": "uint256",
                    "name": "assets",
                    "type": "uint256"
                },
                {
                    "internalType": "address",
                    "name": "receiver",
                    "type": "address"
                }
            ],
            "name": "deposit",
            "outputs": [
                {
                    "internalType": "uint256",
                    "name": "shares",
                    "type": "uint256"
                }
            ],
            "stateMutability": "nonpayable",
            "type": "function"
        },
        {
            "inputs": [
                {
                    "internalType": "address",
                    "name": "",
                    "type": "address"
                }
            ],
            "name": "maxDeposit",
            "outputs": [
                {
                    "internalType": "uint256",
                    "name": "",
                    "type": "uint256"
                }
            ],
            "stateMutability": "view",
            "type": "function"
        },
        {
            "inputs": [
                {
                    "internalType": "address",
                    "name": "",
                    "type": "address"
                }
            ],
            "name": "maxMint",
            "outputs": [
                {
                    "internalType": "uint256",
                    "name": "",
                    "type": "uint256"
                }
            ],
            "stateMutability": "view",
            "type": "function"
        },
        {
            "inputs": [
                {
                    "internalType": "address",
                    "name": "owner",
                    "type": "address"
                }
            ],
            "name": "maxRedeem",
            "outputs": [
                {
                    "internalType": "uint256",
                    "name": "",
                    "type": "uint256"
                }
            ],
            "stateMutability": "view",
            "type": "function"
        },
        {
            "inputs": [
                {
                    "internalType": "address",
                    "name": "owner",
                    "type": "address"
                }
            ],
            "name": "maxWithdraw",
            "outputs": [
                {
                    "internalType": "uint256",
                    "name": "",
                    "type": "uint256"
                }
            ],
            "stateMutability": "view",
            "type": "function"
        },
        {
            "inputs": [
                {
                    "internalType": "uint256",
                    "name": "shares",
                    "type": "uint256"
                },
                {
                    "internalType": "address",
                    "name": "receiver",
                    "type": "address"
                }
            ],
            "name": "mint",
            "outputs": [
                {
                    "internalType": "uint256",
                    "name": "assets",
                    "type": "uint256"
                }
            ],
            "stateMutability": "nonpayable",
            "type": "function"
        },
        {
            "inputs": [],
            "name": "name",
            "outputs": [
                {
                    "internalType": "string",
                    "name": "",
                    "type": "string"
                }
            ],
            "stateMutability": "view",
            "type": "function"
        },
        {
            "inputs": [
                {
                    "internalType": "address",
                    "name": "",
                    "type": "address"
                }
            ],
            "name": "nonces",
            "outputs": [
                {
                    "internalType": "uint256",
                    "name": "",
                    "type": "uint256"
                }
            ],
            "stateMutability": "view",
            "type": "function"
        },
        {
            "inputs": [],
            "name": "owner",
            "outputs": [
                {
                    "internalType": "address",
                    "name": "",
                    "type": "address"
                }
            ],
            "stateMutability": "view",
            "type": "function"
        },
        {
            "inputs": [
                {
                    "internalType": "address",
                    "name": "owner",
                    "type": "address"
                },
                {
                    "internalType": "address",
                    "name": "spender",
                    "type": "address"
                },
                {
                    "internalType": "uint256",
                    "name": "value",
                    "type": "uint256"
                },
                {
                    "internalType": "uint256",
                    "name": "deadline",
                    "type": "uint256"
                },
                {
                    "internalType": "uint8",
                    "name": "v",
                    "type": "uint8"
                },
                {
                    "internalType": "bytes32",
                    "name": "r",
                    "type": "bytes32"
                },
                {
                    "internalType": "bytes32",
                    "name": "s",
                    "type": "bytes32"
                }
            ],
            "name": "permit",
            "outputs": [],
            "stateMutability": "nonpayable",
            "type": "function"
        },
        {
            "inputs": [
                {
                    "internalType": "uint256",
                    "name": "assets",
                    "type": "uint256"
                }
            ],
            "name": "previewDeposit",
            "outputs": [
                {
                    "internalType": "uint256",
                    "name": "",
                    "type": "uint256"
                }
            ],
            "stateMutability": "view",
            "type": "function"
        },
        {
            "inputs": [
                {
                    "internalType": "uint256",
                    "name": "shares",
                    "type": "uint256"
                }
            ],
            "name": "previewMint",
            "outputs": [
                {
                    "internalType": "uint256",
                    "name": "",
                    "type": "uint256"
                }
            ],
            "stateMutability": "view",
            "type": "function"
        },
        {
            "inputs": [
                {
                    "internalType": "uint256",
                    "name": "shares",
                    "type": "uint256"
                }
            ],
            "name": "previewRedeem",
            "outputs": [
                {
                    "internalType": "uint256",
                    "name": "",
                    "type": "uint256"
                }
            ],
            "stateMutability": "view",
            "type": "function"
        },
        {
            "inputs": [
                {
                    "internalType": "uint256",
                    "name": "assets",
                    "type": "uint256"
                }
            ],
            "name": "previewWithdraw",
            "outputs": [
                {
                    "internalType": "uint256",
                    "name": "",
                    "type": "uint256"
                }
            ],
            "stateMutability": "view",
            "type": "function"
        },
        {
            "inputs": [
                {
                    "internalType": "uint256",
                    "name": "shares",
                    "type": "uint256"
                },
                {
                    "internalType": "address",
                    "name": "receiver",
                    "type": "address"
                },
                {
                    "internalType": "address",
                    "name": "owner",
                    "type": "address"
                }
            ],
            "name": "redeem",
            "outputs": [
                {
                    "internalType": "uint256",
                    "name": "assets",
                    "type": "uint256"
                }
            ],
            "stateMutability": "nonpayable",
            "type": "function"
        },
        {
            "inputs": [],
            "name": "renounceOwnership",
            "outputs": [],
            "stateMutability": "nonpayable",
            "type": "function"
        },
        {
            "inputs": [
                {
                    "internalType": "address",
                    "name": "_longFarmer",
                    "type": "address"
                }
            ],
            "name": "setLongFarmer",
            "outputs": [],
            "stateMutability": "nonpayable",
            "type": "function"
        },
        {
            "inputs": [
                {
                    "internalType": "address",
                    "name": "_addr",
                    "type": "address"
                },
                {
                    "internalType": "bool",
                    "name": "status",
                    "type": "bool"
                }
            ],
            "name": "setWhiteList",
            "outputs": [],
            "stateMutability": "nonpayable",
            "type": "function"
        },
        {
            "inputs": [],
            "name": "symbol",
            "outputs": [
                {
                    "internalType": "string",
                    "name": "",
                    "type": "string"
                }
            ],
            "stateMutability": "view",
            "type": "function"
        },
        {
            "inputs": [],
            "name": "totalAssets",
            "outputs": [
                {
                    "internalType": "uint256",
                    "name": "",
                    "type": "uint256"
                }
            ],
            "stateMutability": "view",
            "type": "function"
        },
        {
            "inputs": [],
            "name": "totalSupply",
            "outputs": [
                {
                    "internalType": "uint256",
                    "name": "",
                    "type": "uint256"
                }
            ],
            "stateMutability": "view",
            "type": "function"
        },
        {
            "inputs": [
                {
                    "internalType": "address",
                    "name": "to",
                    "type": "address"
                },
                {
                    "internalType": "uint256",
                    "name": "amount",
                    "type": "uint256"
                }
            ],
            "name": "transfer",
            "outputs": [
                {
                    "internalType": "bool",
                    "name": "",
                    "type": "bool"
                }
            ],
            "stateMutability": "nonpayable",
            "type": "function"
        },
        {
            "inputs": [
                {
                    "internalType": "address",
                    "name": "from",
                    "type": "address"
                },
                {
                    "internalType": "address",
                    "name": "to",
                    "type": "address"
                },
                {
                    "internalType": "uint256",
                    "name": "amount",
                    "type": "uint256"
                }
            ],
            "name": "transferFrom",
            "outputs": [
                {
                    "internalType": "bool",
                    "name": "",
                    "type": "bool"
                }
            ],
            "stateMutability": "nonpayable",
            "type": "function"
        },
        {
            "inputs": [
                {
                    "internalType": "address",
                    "name": "newOwner",
                    "type": "address"
                }
            ],
            "name": "transferOwnership",
            "outputs": [],
            "stateMutability": "nonpayable",
            "type": "function"
        },
        {
            "inputs": [],
            "name": "underlying",
            "outputs": [
                {
                    "internalType": "contract ERC20",
                    "name": "",
                    "type": "address"
                }
            ],
            "stateMutability": "view",
            "type": "function"
        },
        {
            "inputs": [
                {
                    "internalType": "address",
                    "name": "",
                    "type": "address"
                }
            ],
            "name": "whiteList",
            "outputs": [
                {
                    "internalType": "bool",
                    "name": "",
                    "type": "bool"
                }
            ],
            "stateMutability": "view",
            "type": "function"
        },
        {
            "inputs": [
                {
                    "internalType": "uint256",
                    "name": "assets",
                    "type": "uint256"
                },
                {
                    "internalType": "address",
                    "name": "receiver",
                    "type": "address"
                },
                {
                    "internalType": "address",
                    "name": "owner",
                    "type": "address"
                }
            ],
            "name": "withdraw",
            "outputs": [
                {
                    "internalType": "uint256",
                    "name": "shares",
                    "type": "uint256"
                }
            ],
            "stateMutability": "nonpayable",
            "type": "function"
        }
    ],
    "bytecode": {
        "object": "0x6101206040523480156200001257600080fd5b5060405162001f1e38038062001f1e8339810160408190526200003591620002e8565b806040518060400160405280600b81526020016a151c9858d95c95985d5b1d60aa1b815250604051806040016040528060048152602001631515931560e21b8152508181846001600160a01b031663313ce5676040518163ffffffff1660e01b8152600401602060405180830381865afa158015620000b8573d6000803e3d6000fd5b505050506040513d601f19601f82011682018060405250810190620000de91906200031a565b8251620000f390600090602086019062000242565b5081516200010990600190602085019062000242565b5060ff81166080524660a0526200011f62000154565b60c052505050506001600160a01b039190911660e052506200014133620001f0565b6001600160a01b03166101005262000420565b60007f8b73c3c69bb8fe3d512ecc4cf759cc79239f7b179b0ffacaa9a75d522b39400f60006040516200018891906200037c565b6040805191829003822060208301939093528101919091527fc89efdaa54c0f20c7adf612882df0950f5a951637e0307cdcb4c672f298b8bc660608201524660808201523060a082015260c00160405160208183030381529060405280519060200120905090565b600680546001600160a01b038381166001600160a01b0319831681179093556040519116919082907f8be0079c531659141344cd1fd0a4f28419497f9722a3daafe3b4186f6b6457e090600090a35050565b82805462000250906200033f565b90600052602060002090601f016020900481019282620002745760008555620002bf565b82601f106200028f57805160ff1916838001178555620002bf565b82800160010185558215620002bf579182015b82811115620002bf578251825591602001919060010190620002a2565b50620002cd929150620002d1565b5090565b5b80821115620002cd5760008155600101620002d2565b600060208284031215620002fb57600080fd5b81516001600160a01b03811681146200031357600080fd5b9392505050565b6000602082840312156200032d57600080fd5b815160ff811681146200031357600080fd5b600181811c908216806200035457607f821691505b602082108114156200037657634e487b7160e01b600052602260045260246000fd5b50919050565b600080835481600182811c9150808316806200039957607f831692505b6020808410821415620003ba57634e487b7160e01b86526022600452602486fd5b818015620003d15760018114620003e35762000412565b60ff1986168952848901965062000412565b60008a81526020902060005b868110156200040a5781548b820152908501908301620003ef565b505084890196505b509498975050505050505050565b60805160a05160c05160e05161010051611a8f6200048f600039600081816103a3015281816105e8015261095e01526000818161031401528181610acc01528181610bf301528181610dee0152610f37015260006108c501526000610890015260006102b00152611a8f6000f3fe608060405234801561001057600080fd5b50600436106102115760003560e01c8063715018a611610125578063ba087652116100ad578063d505accf1161007c578063d505accf146104be578063d905777e146104d1578063dd62ed3e146104fa578063ef8b30f714610525578063f2fde38b1461053857600080fd5b8063ba08765214610485578063c63d75b614610363578063c6e6f59214610498578063ce96cb77146104ab57600080fd5b806394bf804d116100f457806394bf804d1461043157806395d89b4114610444578063a9059cbb1461044c578063b3d7f6b91461045f578063b460af941461047257600080fd5b8063715018a6146103e55780637ecebe00146103ed5780638d14e1271461040d5780638da5cb5b1461042057600080fd5b80633644e515116101a8578063402d267d11610177578063402d267d146103635780634cdad506146103785780636e553f651461038b5780636f307dc31461039e57806370a08231146103c557600080fd5b80633644e515146102e4578063372c12b1146102ec57806338d52e0f1461030f578063400a80ec1461034e57600080fd5b80630a28a477116101e45780630a28a4771461027c57806318160ddd1461028f57806323b872dd14610298578063313ce567146102ab57600080fd5b806301e1d1141461021657806306fdde031461023157806307a2d13a14610246578063095ea7b314610259575b600080fd5b61021e61054b565b6040519081526020015b60405180910390f35b610239610666565b604051610228919061165d565b61021e6102543660046116b2565b6106f4565b61026c6102673660046116e7565b61071f565b6040519015158152602001610228565b61021e61028a3660046116b2565b61078c565b61021e60025481565b61026c6102a6366004611711565b6107ac565b6102d27f000000000000000000000000000000000000000000000000000000000000000081565b60405160ff9091168152602001610228565b61021e61088c565b61026c6102fa36600461174d565b60086020526000908152604090205460ff1681565b6103367f000000000000000000000000000000000000000000000000000000000000000081565b6040516001600160a01b039091168152602001610228565b61036161035c36600461174d565b6108e7565b005b61021e61037136600461174d565b5060001990565b61021e6103863660046116b2565b610a6c565b61021e610399366004611768565b610a77565b6103367f000000000000000000000000000000000000000000000000000000000000000081565b61021e6103d336600461174d565b60036020526000908152604090205481565b610361610b4e565b61021e6103fb36600461174d565b60056020526000908152604090205481565b61036161041b3660046117a2565b610b84565b6006546001600160a01b0316610336565b61021e61043f366004611768565b610bd9565b610239610c75565b61026c61045a3660046116e7565b610c82565b61021e61046d3660046116b2565b610ce8565b61021e6104803660046117d9565b610d07565b61021e6104933660046117d9565b610e15565b61021e6104a63660046116b2565b610f5e565b61021e6104b936600461174d565b610f7e565b6103616104cc366004611815565b610fa0565b61021e6104df36600461174d565b6001600160a01b031660009081526003602052604090205490565b61021e610508366004611888565b600460209081526000928352604080842090915290825290205481565b61021e6105333660046116b2565b6111e4565b61036161054636600461174d565b6111ef565b600080600760009054906101000a90046001600160a01b03166001600160a01b0316633fa4f2456040518163ffffffff1660e01b8152600401602060405180830381865afa1580156105a1573d6000803e3d6000fd5b505050506040513d601f19601f820116820180604052508101906105c591906118b2565b6040516370a0823160e01b81523060048201529091506000906001600160a01b037f000000000000000000000000000000000000000000000000000000000000000016906370a0823190602401602060405180830381865afa15801561062f573d6000803e3d6000fd5b505050506040513d601f19601f8201168201806040525081019061065391906118b2565b905061065f81836118e1565b9392505050565b60008054610673906118f9565b80601f016020809104026020016040519081016040528092919081815260200182805461069f906118f9565b80156106ec5780601f106106c1576101008083540402835291602001916106ec565b820191906000526020600020905b8154815290600101906020018083116106cf57829003601f168201915b505050505081565b60025460009080156107185761071361070b61054b565b84908361128a565b61065f565b5090919050565b3360008181526004602090815260408083206001600160a01b038716808552925280832085905551919290917f8c5be1e5ebec7d5bd14f71427d1e84f3dd0314c0f7b2291e5b200ac8c7c3b9259061077a9086815260200190565b60405180910390a35060015b92915050565b600254600090801561071857610713816107a461054b565b8591906112a9565b6001600160a01b03831660009081526004602090815260408083203384529091528120546000198114610808576107e38382611934565b6001600160a01b03861660009081526004602090815260408083203384529091529020555b6001600160a01b03851660009081526003602052604081208054859290610830908490611934565b90915550506001600160a01b0380851660008181526003602052604090819020805487019055519091871690600080516020611a3a833981519152906108799087815260200190565b60405180910390a3506001949350505050565b60007f000000000000000000000000000000000000000000000000000000000000000046146108c2576108bd6112d7565b905090565b507f000000000000000000000000000000000000000000000000000000000000000090565b6006546001600160a01b0316331461091a5760405162461bcd60e51b81526004016109119061194b565b60405180910390fd5b600780546001600160a01b0319166001600160a01b0383811691821790925560405163095ea7b360e01b81526004810191909152670de0b6b3a764000060248201527f00000000000000000000000000000000000000000000000000000000000000009091169063095ea7b3906044016020604051808303816000875af11580156109a9573d6000803e3d6000fd5b505050506040513d601f19601f820116820180604052508101906109cd9190611980565b50600754604051636eb1769f60e11b815273c3d2052479dbc010480ae16204777c1469ceffc960048201526001600160a01b039091166024820152739e062eee2c0ab96e1e1c8ce38bf14ba3fa0a35f69063dd62ed3e90604401602060405180830381865afa158015610a44573d6000803e3d6000fd5b505050506040513d601f19601f82011682018060405250810190610a6891906118b2565b5050565b6000610786826106f4565b6000610a82836111e4565b905080610abf5760405162461bcd60e51b815260206004820152600b60248201526a5a45524f5f53484152455360a81b6044820152606401610911565b610af46001600160a01b037f000000000000000000000000000000000000000000000000000000000000000016333086611371565b610afe82826113fb565b60408051848152602081018390526001600160a01b0384169133917fdcbc1c05240f31ff3ad067ef1ee35ce4997762752e3a095284754544f4c709d7910160405180910390a36107868382611455565b6006546001600160a01b03163314610b785760405162461bcd60e51b81526004016109119061194b565b610b8260006114d9565b565b6006546001600160a01b03163314610bae5760405162461bcd60e51b81526004016109119061194b565b6001600160a01b03919091166000908152600860205260409020805460ff1916911515919091179055565b6000610be483610ce8565b9050610c1b6001600160a01b037f000000000000000000000000000000000000000000000000000000000000000016333084611371565b610c2582846113fb565b60408051828152602081018590526001600160a01b0384169133917fdcbc1c05240f31ff3ad067ef1ee35ce4997762752e3a095284754544f4c709d7910160405180910390a36107868184611455565b60018054610673906118f9565b33600090815260036020526040812080548391908390610ca3908490611934565b90915550506001600160a01b03831660008181526003602052604090819020805485019055513390600080516020611a3a8339815191529061077a9086815260200190565b600254600090801561071857610713610cff61054b565b8490836112a9565b6000610d128461078c565b9050336001600160a01b03831614610d82576001600160a01b03821660009081526004602090815260408083203384529091529020546000198114610d8057610d5b8282611934565b6001600160a01b03841660009081526004602090815260408083203384529091529020555b505b610d8c848261152b565b610d96828261157d565b60408051858152602081018390526001600160a01b03808516929086169133917ffbde797d201c681b91056529119e0b02407c7bb96a4a2c75c01fc9667232c8db910160405180910390a461065f6001600160a01b037f00000000000000000000000000000000000000000000000000000000000000001684866115df565b6000336001600160a01b03831614610e85576001600160a01b03821660009081526004602090815260408083203384529091529020546000198114610e8357610e5e8582611934565b6001600160a01b03841660009081526004602090815260408083203384529091529020555b505b610e8e84610a6c565b905080610ecb5760405162461bcd60e51b815260206004820152600b60248201526a5a45524f5f41535345545360a81b6044820152606401610911565b610ed5818561152b565b610edf828561157d565b60408051828152602081018690526001600160a01b03808516929086169133917ffbde797d201c681b91056529119e0b02407c7bb96a4a2c75c01fc9667232c8db910160405180910390a461065f6001600160a01b037f00000000000000000000000000000000000000000000000000000000000000001684836115df565b60025460009080156107185761071381610f7661054b565b85919061128a565b6001600160a01b038116600090815260036020526040812054610786906106f4565b42841015610ff05760405162461bcd60e51b815260206004820152601760248201527f5045524d49545f444541444c494e455f455850495245440000000000000000006044820152606401610911565b60006001610ffc61088c565b6001600160a01b038a811660008181526005602090815260409182902080546001810190915582517f6e71edae12b1b97f4d1f60370fef10105fa2faae0126114a169c64845d6126c98184015280840194909452938d166060840152608083018c905260a083019390935260c08083018b90528151808403909101815260e08301909152805192019190912061190160f01b6101008301526101028201929092526101228101919091526101420160408051601f198184030181528282528051602091820120600084529083018083525260ff871690820152606081018590526080810184905260a0016020604051602081039080840390855afa158015611108573d6000803e3d6000fd5b5050604051601f1901519150506001600160a01b0381161580159061113e5750876001600160a01b0316816001600160a01b0316145b61117b5760405162461bcd60e51b815260206004820152600e60248201526d24a72b20a624a22fa9a4a3a722a960911b6044820152606401610911565b6001600160a01b0390811660009081526004602090815260408083208a8516808552908352928190208990555188815291928a16917f8c5be1e5ebec7d5bd14f71427d1e84f3dd0314c0f7b2291e5b200ac8c7c3b925910160405180910390a350505050505050565b600061078682610f5e565b6006546001600160a01b031633146112195760405162461bcd60e51b81526004016109119061194b565b6001600160a01b03811661127e5760405162461bcd60e51b815260206004820152602660248201527f4f776e61626c653a206e6577206f776e657220697320746865207a65726f206160448201526564647265737360d01b6064820152608401610911565b611287816114d9565b50565b8282028115158415858304851417166112a257600080fd5b0492915050565b8282028115158415858304851417166112c157600080fd5b6001826001830304018115150290509392505050565b60007f8b73c3c69bb8fe3d512ecc4cf759cc79239f7b179b0ffacaa9a75d522b39400f6000604051611309919061199d565b6040805191829003822060208301939093528101919091527fc89efdaa54c0f20c7adf612882df0950f5a951637e0307cdcb4c672f298b8bc660608201524660808201523060a082015260c00160405160208183030381529060405280519060200120905090565b60006040516323b872dd60e01b81528460048201528360248201528260448201526020600060648360008a5af13d15601f3d11600160005114161716915050806113f45760405162461bcd60e51b81526020600482015260146024820152731514905394d1915497d19493d357d1905253115160621b6044820152606401610911565b5050505050565b806002600082825461140d91906118e1565b90915550506001600160a01b038216600081815260036020908152604080832080548601905551848152600080516020611a3a83398151915291015b60405180910390a35050565b3360009081526008602052604090205460ff16151560011461147657600080fd5b600754604051630fcdb7bb60e21b8152600481018490526001600160a01b0390911690633f36deec906024015b600060405180830381600087803b1580156114bd57600080fd5b505af11580156114d1573d6000803e3d6000fd5b505050505050565b600680546001600160a01b038381166001600160a01b0319831681179093556040519116919082907f8be0079c531659141344cd1fd0a4f28419497f9722a3daafe3b4186f6b6457e090600090a35050565b3360009081526008602052604090205460ff16151560011461154c57600080fd5b6007546040516322baaeeb60e11b8152600481018490526001600160a01b03909116906345755dd6906024016114a3565b6001600160a01b038216600090815260036020526040812080548392906115a5908490611934565b90915550506002805482900390556040518181526000906001600160a01b03841690600080516020611a3a83398151915290602001611449565b600060405163a9059cbb60e01b8152836004820152826024820152602060006044836000895af13d15601f3d11600160005114161716915050806116575760405162461bcd60e51b815260206004820152600f60248201526e1514905394d1915497d19052531151608a1b6044820152606401610911565b50505050565b600060208083528351808285015260005b8181101561168a5785810183015185820160400152820161166e565b8181111561169c576000604083870101525b50601f01601f1916929092016040019392505050565b6000602082840312156116c457600080fd5b5035919050565b80356001600160a01b03811681146116e257600080fd5b919050565b600080604083850312156116fa57600080fd5b611703836116cb565b946020939093013593505050565b60008060006060848603121561172657600080fd5b61172f846116cb565b925061173d602085016116cb565b9150604084013590509250925092565b60006020828403121561175f57600080fd5b61065f826116cb565b6000806040838503121561177b57600080fd5b8235915061178b602084016116cb565b90509250929050565b801515811461128757600080fd5b600080604083850312156117b557600080fd5b6117be836116cb565b915060208301356117ce81611794565b809150509250929050565b6000806000606084860312156117ee57600080fd5b833592506117fe602085016116cb565b915061180c604085016116cb565b90509250925092565b600080600080600080600060e0888a03121561183057600080fd5b611839886116cb565b9650611847602089016116cb565b95506040880135945060608801359350608088013560ff8116811461186b57600080fd5b9699959850939692959460a0840135945060c09093013592915050565b6000806040838503121561189b57600080fd5b6118a4836116cb565b915061178b602084016116cb565b6000602082840312156118c457600080fd5b5051919050565b634e487b7160e01b600052601160045260246000fd5b600082198211156118f4576118f46118cb565b500190565b600181811c9082168061190d57607f821691505b6020821081141561192e57634e487b7160e01b600052602260045260246000fd5b50919050565b600082821015611946576119466118cb565b500390565b6020808252818101527f4f776e61626c653a2063616c6c6572206973206e6f7420746865206f776e6572604082015260600190565b60006020828403121561199257600080fd5b815161065f81611794565b600080835481600182811c9150808316806119b957607f831692505b60208084108214156119d957634e487b7160e01b86526022600452602486fd5b8180156119ed57600181146119fe57611a2b565b60ff19861689528489019650611a2b565b60008a81526020902060005b86811015611a235781548b820152908501908301611a0a565b505084890196505b50949897505050505050505056feddf252ad1be2c89b69c2b068fc378daa952ba7f163c4a11628f55a4df523b3efa264697066735822122062631b3d1db64c106725473c22b67024f528f12022d008c0f96a884e1872955364736f6c634300080a0033",
        "linkReferences": {}
    }
}